{
  "contractName": "ECRecovery",
  "abi": [
    {
      "constant": true,
      "inputs": [
        {
          "name": "hash",
          "type": "bytes32"
        },
        {
          "name": "sig",
          "type": "bytes"
        }
      ],
      "name": "recover",
      "outputs": [
        {
          "name": "",
          "type": "address"
        }
      ],
      "payable": false,
      "stateMutability": "pure",
      "type": "function"
    }
  ],
  "bytecode": "0x610202610026600b82828239805160001a60731461001957fe5b30600052607381538281f3fe73000000000000000000000000000000000000000030146080604052600436106100355760003560e01c806319045a251461003a575b600080fd5b6100e76004803603604081101561005057600080fd5b8135919081019060408101602082013564010000000081111561007257600080fd5b82018360208201111561008457600080fd5b803590602001918460018302840111640100000000831117156100a657600080fd5b91908080601f016020809104026020016040519081016040528093929190818152602001838380828437600092019190915250929550610103945050505050565b604080516001600160a01b039092168252519081900360200190f35b600080600080845160411461011e57600093505050506101d0565b50505060208201516040830151606084015160001a601b81101561014057601b015b8060ff16601b1415801561015857508060ff16601c14155b1561016957600093505050506101d0565b6040805160008152602080820180845289905260ff8416828401526060820186905260808201859052915160019260a0808401939192601f1981019281900390910190855afa1580156101c0573d6000803e3d6000fd5b5050506020604051035193505050505b9291505056fea165627a7a72305820054b2286cbf97a0f4f12bd6b43c2ebb39a1cf5f8c33ccf3eacdee4b4b3ad3f650029",
  "source": "pragma solidity >=0.4.21 <0.6.0;\r\nlibrary ECRecovery {\r\n\r\n  /**\r\n   * @dev Recover signer address from a message by using his signature\r\n   * @param hash bytes32 message, the hash is the signed message. What is recovered is the signer address.\r\n   * @param sig bytes signature, the signature is generated using web3.eth.sign()\r\n   */\r\n  function recover(bytes32 hash, bytes memory sig) public pure returns (address) {\r\n    bytes32 r;\r\n    bytes32 s;\r\n    uint8 v;\r\n\r\n    //Check the signature length\r\n    if (sig.length != 65) {\r\n      return (address(0));\r\n    }\r\n\r\n    // Divide the signature in r, s and v variables\r\n    assembly {\r\n      r := mload(add(sig, 32))\r\n      s := mload(add(sig, 64))\r\n      v := byte(0, mload(add(sig, 96)))\r\n    }\r\n\r\n    // Version of signature should be 27 or 28, but 0 and 1 are also possible versions\r\n    if (v < 27) {\r\n      v += 27;\r\n    }\r\n\r\n    // If the version is correct return the signer address\r\n    if (v != 27 && v != 28) {\r\n      return (address(0));\r\n    } else {\r\n      return ecrecover(hash, v, r, s);\r\n    }\r\n  }\r\n\r\n}",
  "sourcePath": "M:\\projects\\splitdai\\splitDai\\web-interface\\contracts\\ECRecovery.sol",
  "compiler": {
    "name": "solc",
    "version": "0.5.8+commit.23d335f2.Emscripten.clang"
  },
  "schemaVersion": "3.0.16",
  "updatedAt": "2019-11-21T11:48:18.203Z",
  "devdoc": {
    "methods": {
      "recover(bytes32,bytes)": {
        "details": "Recover signer address from a message by using his signature\r",
        "params": {
          "hash": "bytes32 message, the hash is the signed message. What is recovered is the signer address.\r",
          "sig": "bytes signature, the signature is generated using web3.eth.sign()\r"
        }
      }
    }
  },
  "userdoc": {
    "methods": {}
  }
}