{
  "contractName": "SEToken",
  "abi": [
    {
      "constant": true,
      "inputs": [],
      "name": "name",
      "outputs": [
        {
          "name": "",
          "type": "string"
        }
      ],
      "payable": false,
      "stateMutability": "view",
      "type": "function"
    },
    {
      "constant": true,
      "inputs": [],
      "name": "totalSupply",
      "outputs": [
        {
          "name": "",
          "type": "uint256"
        }
      ],
      "payable": false,
      "stateMutability": "view",
      "type": "function"
    },
    {
      "constant": true,
      "inputs": [],
      "name": "decimals",
      "outputs": [
        {
          "name": "",
          "type": "uint8"
        }
      ],
      "payable": false,
      "stateMutability": "view",
      "type": "function"
    },
    {
      "constant": true,
      "inputs": [],
      "name": "decimalFactor",
      "outputs": [
        {
          "name": "",
          "type": "uint256"
        }
      ],
      "payable": false,
      "stateMutability": "view",
      "type": "function"
    },
    {
      "constant": true,
      "inputs": [],
      "name": "symbol",
      "outputs": [
        {
          "name": "",
          "type": "string"
        }
      ],
      "payable": false,
      "stateMutability": "view",
      "type": "function"
    },
    {
      "inputs": [],
      "payable": false,
      "stateMutability": "nonpayable",
      "type": "constructor"
    },
    {
      "anonymous": false,
      "inputs": [
        {
          "indexed": true,
          "name": "from",
          "type": "address"
        },
        {
          "indexed": true,
          "name": "to",
          "type": "address"
        },
        {
          "indexed": false,
          "name": "value",
          "type": "uint256"
        }
      ],
      "name": "Transfer",
      "type": "event"
    },
    {
      "anonymous": false,
      "inputs": [
        {
          "indexed": true,
          "name": "owner",
          "type": "address"
        },
        {
          "indexed": true,
          "name": "spender",
          "type": "address"
        },
        {
          "indexed": false,
          "name": "value",
          "type": "uint256"
        }
      ],
      "name": "Approval",
      "type": "event"
    },
    {
      "constant": true,
      "inputs": [
        {
          "name": "_owner",
          "type": "address"
        }
      ],
      "name": "balanceOf",
      "outputs": [
        {
          "name": "balance",
          "type": "uint256"
        }
      ],
      "payable": false,
      "stateMutability": "view",
      "type": "function"
    },
    {
      "constant": true,
      "inputs": [
        {
          "name": "_owner",
          "type": "address"
        },
        {
          "name": "_spender",
          "type": "address"
        }
      ],
      "name": "allowance",
      "outputs": [
        {
          "name": "",
          "type": "uint256"
        }
      ],
      "payable": false,
      "stateMutability": "view",
      "type": "function"
    },
    {
      "constant": false,
      "inputs": [
        {
          "name": "_owner",
          "type": "address"
        },
        {
          "name": "_amount",
          "type": "uint256"
        }
      ],
      "name": "getTokens",
      "outputs": [],
      "payable": false,
      "stateMutability": "nonpayable",
      "type": "function"
    },
    {
      "constant": false,
      "inputs": [
        {
          "name": "_to",
          "type": "address"
        },
        {
          "name": "_value",
          "type": "uint256"
        }
      ],
      "name": "transfer",
      "outputs": [
        {
          "name": "",
          "type": "bool"
        }
      ],
      "payable": false,
      "stateMutability": "nonpayable",
      "type": "function"
    },
    {
      "constant": false,
      "inputs": [
        {
          "name": "_from",
          "type": "address"
        },
        {
          "name": "_to",
          "type": "address"
        },
        {
          "name": "_value",
          "type": "uint256"
        }
      ],
      "name": "transferFrom",
      "outputs": [
        {
          "name": "",
          "type": "bool"
        }
      ],
      "payable": false,
      "stateMutability": "nonpayable",
      "type": "function"
    },
    {
      "constant": false,
      "inputs": [
        {
          "name": "_spender",
          "type": "address"
        },
        {
          "name": "_value",
          "type": "uint256"
        }
      ],
      "name": "approve",
      "outputs": [
        {
          "name": "",
          "type": "bool"
        }
      ],
      "payable": false,
      "stateMutability": "nonpayable",
      "type": "function"
    },
    {
      "constant": false,
      "inputs": [
        {
          "name": "_spender",
          "type": "address"
        },
        {
          "name": "_addedValue",
          "type": "uint256"
        }
      ],
      "name": "increaseApproval",
      "outputs": [
        {
          "name": "",
          "type": "bool"
        }
      ],
      "payable": false,
      "stateMutability": "nonpayable",
      "type": "function"
    },
    {
      "constant": false,
      "inputs": [
        {
          "name": "_spender",
          "type": "address"
        },
        {
          "name": "_subtractedValue",
          "type": "uint256"
        }
      ],
      "name": "decreaseApproval",
      "outputs": [
        {
          "name": "",
          "type": "bool"
        }
      ],
      "payable": false,
      "stateMutability": "nonpayable",
      "type": "function"
    }
  ],
  "bytecode": "0x60c0604052600f60808190527f53706c69746845544820546f6b656e000000000000000000000000000000000060a090815261003e9160009190610096565b506040805180820190915260038082527f5345540000000000000000000000000000000000000000000000000000000000602090920191825261008391600191610096565b5034801561009057600080fd5b50610131565b828054600181600116156101000203166002900490600052602060002090601f016020900481019282601f106100d757805160ff1916838001178555610104565b82800160010185558215610104579182015b828111156101045782518255916020019190600101906100e9565b50610110929150610114565b5090565b61012e91905b80821115610110576000815560010161011a565b90565b61098c806101406000396000f3fe608060405234801561001057600080fd5b50600436106100cf5760003560e01c8063661884631161008c57806395d89b411161006657806395d89b4114610287578063a9059cbb1461028f578063d73dd623146102bb578063dd62ed3e146102e7576100cf565b8063661884631461022d5780636d6a6a4d1461025957806370a0823114610261576100cf565b806306fdde03146100d4578063095ea7b31461015157806318160ddd1461019157806323b872dd146101ab5780632c512d6e146101e1578063313ce5671461020f575b600080fd5b6100dc610315565b6040805160208082528351818301528351919283929083019185019080838360005b838110156101165781810151838201526020016100fe565b50505050905090810190601f1680156101435780820380516001836020036101000a031916815260200191505b509250505060405180910390f35b61017d6004803603604081101561016757600080fd5b506001600160a01b0381351690602001356103a3565b604080519115158252519081900360200190f35b610199610409565b60408051918252519081900360200190f35b61017d600480360360608110156101c157600080fd5b506001600160a01b0381358116916020810135909116906040013561040f565b61020d600480360360408110156101f757600080fd5b506001600160a01b038135169060200135610586565b005b61021761061d565b6040805160ff9092168252519081900360200190f35b61017d6004803603604081101561024357600080fd5b506001600160a01b038135169060200135610622565b610199610712565b6101996004803603602081101561027757600080fd5b50356001600160a01b031661071e565b6100dc610739565b61017d600480360360408110156102a557600080fd5b506001600160a01b038135169060200135610793565b61017d600480360360408110156102d157600080fd5b506001600160a01b038135169060200135610874565b610199600480360360408110156102fd57600080fd5b506001600160a01b038135811691602001351661090d565b6000805460408051602060026001851615610100026000190190941693909304601f8101849004840282018401909252818152929183018282801561039b5780601f106103705761010080835404028352916020019161039b565b820191906000526020600020905b81548152906001019060200180831161037e57829003601f168201915b505050505081565b3360008181526004602090815260408083206001600160a01b038716808552908352818420869055815186815291519394909390927f8c5be1e5ebec7d5bd14f71427d1e84f3dd0314c0f7b2291e5b200ac8c7c3b925928290030190a350600192915050565b60025481565b60006001600160a01b03831661042457600080fd5b6001600160a01b03841660009081526003602052604090205482111561044957600080fd5b6001600160a01b038416600090815260046020908152604080832033845290915290205482111561047957600080fd5b6001600160a01b0384166000908152600360205260409020546104a2908363ffffffff61093816565b6001600160a01b0380861660009081526003602052604080822093909355908516815220546104d7908363ffffffff61094a16565b6001600160a01b03808516600090815260036020908152604080832094909455918716815260048252828120338252909152205461051b908363ffffffff61093816565b6001600160a01b03808616600081815260046020908152604080832033845282529182902094909455805186815290519287169391927fddf252ad1be2c89b69c2b068fc378daa952ba7f163c4a11628f55a4df523b3ef929181900390910190a35060019392505050565b600254610599908263ffffffff61094a16565b6002556001600160a01b0382166000908152600360205260409020546105c5908263ffffffff61094a16565b6001600160a01b03831660008181526003602090815260408083209490945583518581529351929391927fddf252ad1be2c89b69c2b068fc378daa952ba7f163c4a11628f55a4df523b3ef9281900390910190a35050565b601281565b3360009081526004602090815260408083206001600160a01b038616845290915281205480831115610677573360009081526004602090815260408083206001600160a01b03881684529091528120556106ac565b610687818463ffffffff61093816565b3360009081526004602090815260408083206001600160a01b03891684529091529020555b3360008181526004602090815260408083206001600160a01b0389168085529083529281902054815190815290519293927f8c5be1e5ebec7d5bd14f71427d1e84f3dd0314c0f7b2291e5b200ac8c7c3b925929181900390910190a35060019392505050565b670de0b6b3a764000081565b6001600160a01b031660009081526003602052604090205490565b60018054604080516020600284861615610100026000190190941693909304601f8101849004840282018401909252818152929183018282801561039b5780601f106103705761010080835404028352916020019161039b565b60006001600160a01b0383166107a857600080fd5b336000908152600360205260409020548211156107c457600080fd5b336000908152600360205260409020546107e4908363ffffffff61093816565b33600090815260036020526040808220929092556001600160a01b03851681522054610816908363ffffffff61094a16565b6001600160a01b0384166000818152600360209081526040918290209390935580518581529051919233927fddf252ad1be2c89b69c2b068fc378daa952ba7f163c4a11628f55a4df523b3ef9281900390910190a350600192915050565b3360009081526004602090815260408083206001600160a01b03861684529091528120546108a8908363ffffffff61094a16565b3360008181526004602090815260408083206001600160a01b0389168085529083529281902085905580519485525191937f8c5be1e5ebec7d5bd14f71427d1e84f3dd0314c0f7b2291e5b200ac8c7c3b925929081900390910190a350600192915050565b6001600160a01b03918216600090815260046020908152604080832093909416825291909152205490565b60008282111561094457fe5b50900390565b60008282018381101561095957fe5b939250505056fea165627a7a723058208acf68e2fc83127c0e21beebb9af44096c9a3351f3fd5e85bd77e083d121e0730029",
  "source": "pragma solidity >=0.4.21 <0.6.0;\r\n\r\ninterface IERC20 {\r\n  function balanceOf(address _owner) external view returns (uint256);\r\n  function allowance(address _owner, address _spender) external view returns (uint256);\r\n  function transfer(address _to, uint256 _value) external returns (bool);\r\n  function transferFrom(address _from, address _to, uint256 _value) external returns (bool);\r\n  function approve(address _spender, uint256 _value) external returns (bool);\r\n  event Transfer(address indexed from, address indexed to, uint256 value);\r\n  event Approval(address indexed owner, address indexed spender, uint256 value);\r\n}\r\n\r\nlibrary SafeMath {\r\n  function mul(uint256 a, uint256 b) internal pure returns (uint256) {\r\n    if (a == 0) {\r\n      return 0;\r\n    }\r\n    uint256 c = a * b;\r\n    assert(c / a == b);\r\n    return c;\r\n  }\r\n\r\n  function div(uint256 a, uint256 b) internal pure returns (uint256) {\r\n    // assert(b > 0); // Solidity automatically throws when dividing by 0\r\n    uint256 c = a / b;\r\n    // assert(a == b * c + a % b); // There is no case in which this doesn't hold\r\n    return c;\r\n  }\r\n\r\n  function sub(uint256 a, uint256 b) internal pure returns (uint256) {\r\n    assert(b <= a);\r\n    return a - b;\r\n  }\r\n\r\n  function add(uint256 a, uint256 b) internal pure returns (uint256) {\r\n    uint256 c = a + b;\r\n    assert(c >= a);\r\n    return c;\r\n  }\r\n}\r\n\r\n\r\ncontract SEToken is IERC20 {\r\n  using SafeMath for uint256;\r\n\r\n  //  Token parameters\r\n  string public name = 'SplithETH Token';\r\n  string public symbol = 'SET';\r\n  uint8 public constant decimals = 18;\r\n  uint256 public constant decimalFactor = 10 ** uint256(decimals);\r\n  uint256 public totalSupply;\r\n\r\n  mapping (address => uint256) balances;\r\n  mapping (address => mapping (address => uint256)) internal allowed;\r\n\r\n  event Transfer(address indexed from, address indexed to, uint256 value);\r\n  event Approval(address indexed owner, address indexed spender, uint256 value);\r\n\r\n\r\n  constructor () public {\r\n    /* balances[msg.sender] = totalSupply;\r\n    emit Transfer(address(0), msg.sender, totalSupply); */\r\n  }\r\n\r\n\r\n  function balanceOf(address _owner) public view returns (uint256 balance) {\r\n    return balances[_owner];\r\n  }\r\n\r\n  function allowance(address _owner, address _spender) public view returns (uint256) {\r\n    return allowed[_owner][_spender];\r\n  }\r\n\r\n\r\n  function getTokens(address _owner, uint256 _amount) public {\r\n      totalSupply = totalSupply.add(_amount);\r\n      balances[_owner] = balances[_owner].add(_amount);\r\n      emit Transfer(address(0), _owner, _amount);\r\n  }\r\n\r\n\r\n  function transfer(address _to, uint256 _value) public returns (bool) {\r\n    require(_to != address(0));\r\n    require(_value <= balances[msg.sender]);\r\n\r\n    // SafeMath.sub will throw if there is not enough balance.\r\n    balances[msg.sender] = balances[msg.sender].sub(_value);\r\n    balances[_to] = balances[_to].add(_value);\r\n    emit Transfer(msg.sender, _to, _value);\r\n    return true;\r\n  }\r\n\r\n\r\n  function transferFrom(address _from, address _to, uint256 _value) public returns (bool) {\r\n    require(_to != address(0));\r\n    require(_value <= balances[_from]);\r\n    require(_value <= allowed[_from][msg.sender]);\r\n\r\n    balances[_from] = balances[_from].sub(_value);\r\n    balances[_to] = balances[_to].add(_value);\r\n    allowed[_from][msg.sender] = allowed[_from][msg.sender].sub(_value);\r\n    emit Transfer(_from, _to, _value);\r\n    return true;\r\n  }\r\n\r\n\r\n  function approve(address _spender, uint256 _value) public returns (bool) {\r\n    allowed[msg.sender][_spender] = _value;\r\n    emit Approval(msg.sender, _spender, _value);\r\n    return true;\r\n  }\r\n\r\n  function increaseApproval(address _spender, uint _addedValue) public returns (bool) {\r\n    allowed[msg.sender][_spender] = allowed[msg.sender][_spender].add(_addedValue);\r\n    emit Approval(msg.sender, _spender, allowed[msg.sender][_spender]);\r\n    return true;\r\n  }\r\n\r\n\r\n  function decreaseApproval(address _spender, uint _subtractedValue) public returns (bool) {\r\n    uint oldValue = allowed[msg.sender][_spender];\r\n    if (_subtractedValue > oldValue) {\r\n      allowed[msg.sender][_spender] = 0;\r\n    } else {\r\n      allowed[msg.sender][_spender] = oldValue.sub(_subtractedValue);\r\n    }\r\n    emit Approval(msg.sender, _spender, allowed[msg.sender][_spender]);\r\n    return true;\r\n  }\r\n\r\n}\r\n",
  "sourcePath": "M:/projects/splitdai/splitDai/web-interface/contracts/SEToken.sol",
  "compiler": {
    "name": "solc",
    "version": "0.5.8+commit.23d335f2.Emscripten.clang"
  },
  "schemaVersion": "3.0.16",
  "updatedAt": "2019-11-16T20:42:21.245Z",
  "devdoc": {
    "methods": {}
  },
  "userdoc": {
    "methods": {}
  }
}