{
  "contractName": "SplitETH",
  "abi": [
    {
      "constant": true,
      "inputs": [
        {
          "name": "",
          "type": "bytes32"
        },
        {
          "name": "",
          "type": "address"
        }
      ],
      "name": "inGroup",
      "outputs": [
        {
          "name": "",
          "type": "bool"
        }
      ],
      "payable": false,
      "stateMutability": "view",
      "type": "function"
    },
    {
      "constant": true,
      "inputs": [
        {
          "name": "",
          "type": "bytes32"
        },
        {
          "name": "",
          "type": "address"
        }
      ],
      "name": "groupState",
      "outputs": [
        {
          "name": "amount",
          "type": "uint256"
        },
        {
          "name": "isCredit",
          "type": "bool"
        }
      ],
      "payable": false,
      "stateMutability": "view",
      "type": "function"
    },
    {
      "constant": true,
      "inputs": [
        {
          "name": "",
          "type": "bytes32"
        },
        {
          "name": "",
          "type": "uint256"
        }
      ],
      "name": "groupUsers",
      "outputs": [
        {
          "name": "",
          "type": "address"
        }
      ],
      "payable": false,
      "stateMutability": "view",
      "type": "function"
    },
    {
      "constant": true,
      "inputs": [
        {
          "name": "",
          "type": "bytes32"
        }
      ],
      "name": "groupTimeout",
      "outputs": [
        {
          "name": "",
          "type": "uint256"
        }
      ],
      "payable": false,
      "stateMutability": "view",
      "type": "function"
    },
    {
      "constant": true,
      "inputs": [
        {
          "name": "",
          "type": "bytes32"
        }
      ],
      "name": "groupToken",
      "outputs": [
        {
          "name": "",
          "type": "address"
        }
      ],
      "payable": false,
      "stateMutability": "view",
      "type": "function"
    },
    {
      "constant": true,
      "inputs": [
        {
          "name": "",
          "type": "bytes32"
        },
        {
          "name": "",
          "type": "address"
        }
      ],
      "name": "groupBalances",
      "outputs": [
        {
          "name": "",
          "type": "uint256"
        }
      ],
      "payable": false,
      "stateMutability": "view",
      "type": "function"
    },
    {
      "constant": true,
      "inputs": [
        {
          "name": "",
          "type": "bytes32"
        }
      ],
      "name": "groupNonce",
      "outputs": [
        {
          "name": "",
          "type": "uint256"
        }
      ],
      "payable": false,
      "stateMutability": "view",
      "type": "function"
    },
    {
      "constant": true,
      "inputs": [
        {
          "name": "",
          "type": "bytes32"
        }
      ],
      "name": "groupCloseTime",
      "outputs": [
        {
          "name": "",
          "type": "uint256"
        }
      ],
      "payable": false,
      "stateMutability": "view",
      "type": "function"
    },
    {
      "anonymous": false,
      "inputs": [
        {
          "indexed": true,
          "name": "_name",
          "type": "bytes32"
        },
        {
          "indexed": false,
          "name": "_users",
          "type": "address[]"
        },
        {
          "indexed": true,
          "name": "_token",
          "type": "address"
        },
        {
          "indexed": false,
          "name": "_timeout",
          "type": "uint256"
        }
      ],
      "name": "GroupCreated",
      "type": "event"
    },
    {
      "anonymous": false,
      "inputs": [
        {
          "indexed": true,
          "name": "_name",
          "type": "bytes32"
        },
        {
          "indexed": true,
          "name": "_user",
          "type": "address"
        },
        {
          "indexed": true,
          "name": "_token",
          "type": "address"
        },
        {
          "indexed": false,
          "name": "_deposit",
          "type": "uint256"
        },
        {
          "indexed": false,
          "name": "_balance",
          "type": "uint256"
        }
      ],
      "name": "UserBalanceUpdated",
      "type": "event"
    },
    {
      "anonymous": false,
      "inputs": [
        {
          "indexed": true,
          "name": "_name",
          "type": "bytes32"
        },
        {
          "indexed": false,
          "name": "_challengeEndTime",
          "type": "uint256"
        }
      ],
      "name": "GroupClosed",
      "type": "event"
    },
    {
      "anonymous": false,
      "inputs": [
        {
          "indexed": true,
          "name": "_name",
          "type": "bytes32"
        },
        {
          "indexed": false,
          "name": "_time",
          "type": "uint256"
        }
      ],
      "name": "GroupUpdated",
      "type": "event"
    },
    {
      "anonymous": false,
      "inputs": [
        {
          "indexed": true,
          "name": "_name",
          "type": "bytes32"
        },
        {
          "indexed": true,
          "name": "_user",
          "type": "address"
        },
        {
          "indexed": true,
          "name": "_token",
          "type": "address"
        },
        {
          "indexed": false,
          "name": "_refund",
          "type": "uint256"
        }
      ],
      "name": "UserBalanceWithdrawn",
      "type": "event"
    },
    {
      "constant": false,
      "inputs": [
        {
          "name": "_name",
          "type": "bytes32"
        },
        {
          "name": "_users",
          "type": "address[]"
        },
        {
          "name": "_token",
          "type": "address"
        },
        {
          "name": "_timeout",
          "type": "uint256"
        }
      ],
      "name": "createGroup",
      "outputs": [],
      "payable": false,
      "stateMutability": "nonpayable",
      "type": "function"
    },
    {
      "constant": false,
      "inputs": [
        {
          "name": "_name",
          "type": "bytes32"
        },
        {
          "name": "_user",
          "type": "address"
        },
        {
          "name": "_amount",
          "type": "uint256"
        }
      ],
      "name": "fundUser",
      "outputs": [],
      "payable": false,
      "stateMutability": "nonpayable",
      "type": "function"
    },
    {
      "constant": false,
      "inputs": [
        {
          "name": "_name",
          "type": "bytes32"
        },
        {
          "name": "_amounts",
          "type": "uint256[]"
        },
        {
          "name": "_isCredits",
          "type": "bool[]"
        },
        {
          "name": "_timestamp",
          "type": "uint256"
        },
        {
          "name": "_vs",
          "type": "uint8[]"
        },
        {
          "name": "_rs",
          "type": "bytes32[]"
        },
        {
          "name": "_ss",
          "type": "bytes32[]"
        }
      ],
      "name": "closeGroup",
      "outputs": [],
      "payable": false,
      "stateMutability": "nonpayable",
      "type": "function"
    },
    {
      "constant": false,
      "inputs": [
        {
          "name": "_name",
          "type": "bytes32"
        },
        {
          "name": "_amounts",
          "type": "uint256[]"
        },
        {
          "name": "_isCredits",
          "type": "bool[]"
        },
        {
          "name": "_timestamp",
          "type": "uint256"
        },
        {
          "name": "_vs",
          "type": "uint8[]"
        },
        {
          "name": "_rs",
          "type": "bytes32[]"
        },
        {
          "name": "_ss",
          "type": "bytes32[]"
        }
      ],
      "name": "updateGroup",
      "outputs": [],
      "payable": false,
      "stateMutability": "nonpayable",
      "type": "function"
    },
    {
      "constant": false,
      "inputs": [
        {
          "name": "_name",
          "type": "bytes32"
        }
      ],
      "name": "pullFunds",
      "outputs": [],
      "payable": false,
      "stateMutability": "nonpayable",
      "type": "function"
    },
    {
      "constant": true,
      "inputs": [
        {
          "name": "_name",
          "type": "bytes32"
        },
        {
          "name": "_amounts",
          "type": "uint256[]"
        },
        {
          "name": "_isCredits",
          "type": "bool[]"
        },
        {
          "name": "_timestamp",
          "type": "uint256"
        },
        {
          "name": "_vs",
          "type": "uint8[]"
        },
        {
          "name": "_rs",
          "type": "bytes32[]"
        },
        {
          "name": "_ss",
          "type": "bytes32[]"
        }
      ],
      "name": "checkSigs",
      "outputs": [
        {
          "name": "",
          "type": "bool"
        }
      ],
      "payable": false,
      "stateMutability": "view",
      "type": "function"
    },
    {
      "constant": true,
      "inputs": [
        {
          "name": "_name",
          "type": "bytes32"
        },
        {
          "name": "_user",
          "type": "address"
        },
        {
          "name": "_amounts",
          "type": "uint256[]"
        },
        {
          "name": "_isCredits",
          "type": "bool[]"
        },
        {
          "name": "_timestamp",
          "type": "uint256"
        },
        {
          "name": "_v",
          "type": "uint8"
        },
        {
          "name": "_r",
          "type": "bytes32"
        },
        {
          "name": "_s",
          "type": "bytes32"
        }
      ],
      "name": "checkSig",
      "outputs": [
        {
          "name": "",
          "type": "bool"
        }
      ],
      "payable": false,
      "stateMutability": "view",
      "type": "function"
    }
  ],
  "bytecode": "0x608060405234801561001057600080fd5b5061285d806100206000396000f3fe608060405234801561001057600080fd5b50600436106100f55760003560e01c806396150c9211610097578063b4dad59611610066578063b4dad596146104e1578063b524c38514610799578063c44cafca146107b6578063d15006a514610903576100f5565b806396150c92146103f7578063a12c615014610414578063a318dd1114610440578063b4378e081461045d576100f5565b8063638028ec116100d3578063638028ec1461019e5780638a1ad3d4146101d05780638b0d296e1461020f57806390554574146103c8576100f5565b80633fa8f507146100fa57806347e023801461013a578063539d8f8514610159575b600080fd5b6101266004803603604081101561011057600080fd5b50803590602001356001600160a01b0316610bbb565b604080519115158252519081900360200190f35b6101576004803603602081101561015057600080fd5b5035610bdb565b005b6101856004803603604081101561016f57600080fd5b50803590602001356001600160a01b0316610f19565b6040805192835290151560208301528051918290030190f35b610157600480360360608110156101b457600080fd5b508035906001600160a01b036020820135169060400135610f40565b6101f3600480360360408110156101e657600080fd5b5080359060200135611206565b604080516001600160a01b039092168252519081900360200190f35b610157600480360360e081101561022557600080fd5b81359190810190604081016020820135600160201b81111561024657600080fd5b82018360208201111561025857600080fd5b803590602001918460208302840111600160201b8311171561027957600080fd5b919390929091602081019035600160201b81111561029657600080fd5b8201836020820111156102a857600080fd5b803590602001918460208302840111600160201b831117156102c957600080fd5b91939092823592604081019060200135600160201b8111156102ea57600080fd5b8201836020820111156102fc57600080fd5b803590602001918460208302840111600160201b8311171561031d57600080fd5b919390929091602081019035600160201b81111561033a57600080fd5b82018360208201111561034c57600080fd5b803590602001918460208302840111600160201b8311171561036d57600080fd5b919390929091602081019035600160201b81111561038a57600080fd5b82018360208201111561039c57600080fd5b803590602001918460208302840111600160201b831117156103bd57600080fd5b50909250905061123b565b6103e5600480360360208110156103de57600080fd5b503561143e565b60408051918252519081900360200190f35b6101f36004803603602081101561040d57600080fd5b5035611450565b6103e56004803603604081101561042a57600080fd5b50803590602001356001600160a01b031661146b565b6103e56004803603602081101561045657600080fd5b5035611485565b6101576004803603608081101561047357600080fd5b81359190810190604081016020820135600160201b81111561049457600080fd5b8201836020820111156104a657600080fd5b803590602001918460208302840111600160201b831117156104c757600080fd5b91935091506001600160a01b038135169060200135611497565b610126600480360360e08110156104f757600080fd5b81359190810190604081016020820135600160201b81111561051857600080fd5b82018360208201111561052a57600080fd5b803590602001918460208302840111600160201b8311171561054b57600080fd5b9190808060200260200160405190810160405280939291908181526020018383602002808284376000920191909152509295949360208101935035915050600160201b81111561059a57600080fd5b8201836020820111156105ac57600080fd5b803590602001918460208302840111600160201b831117156105cd57600080fd5b91908080602002602001604051908101604052809392919081815260200183836020028082843760009201919091525092958435959094909350604081019250602001359050600160201b81111561062457600080fd5b82018360208201111561063657600080fd5b803590602001918460208302840111600160201b8311171561065757600080fd5b9190808060200260200160405190810160405280939291908181526020018383602002808284376000920191909152509295949360208101935035915050600160201b8111156106a657600080fd5b8201836020820111156106b857600080fd5b803590602001918460208302840111600160201b831117156106d957600080fd5b9190808060200260200160405190810160405280939291908181526020018383602002808284376000920191909152509295949360208101935035915050600160201b81111561072857600080fd5b82018360208201111561073a57600080fd5b803590602001918460208302840111600160201b8311171561075b57600080fd5b9190808060200260200160405190810160405280939291908181526020018383602002808284376000920191909152509295506117b7945050505050565b6103e5600480360360208110156107af57600080fd5b5035611a27565b61012660048036036101008110156107cd57600080fd5b8135916001600160a01b0360208201351691810190606081016040820135600160201b8111156107fc57600080fd5b82018360208201111561080e57600080fd5b803590602001918460208302840111600160201b8311171561082f57600080fd5b9190808060200260200160405190810160405280939291908181526020018383602002808284376000920191909152509295949360208101935035915050600160201b81111561087e57600080fd5b82018360208201111561089057600080fd5b803590602001918460208302840111600160201b831117156108b157600080fd5b91908080602002602001604051908101604052809392919081815260200183836020028082843760009201919091525092955050823593505060ff602083013516916040810135915060600135611a39565b610157600480360360e081101561091957600080fd5b81359190810190604081016020820135600160201b81111561093a57600080fd5b82018360208201111561094c57600080fd5b803590602001918460208302840111600160201b8311171561096d57600080fd5b9190808060200260200160405190810160405280939291908181526020018383602002808284376000920191909152509295949360208101935035915050600160201b8111156109bc57600080fd5b8201836020820111156109ce57600080fd5b803590602001918460208302840111600160201b831117156109ef57600080fd5b91908080602002602001604051908101604052809392919081815260200183836020028082843760009201919091525092958435959094909350604081019250602001359050600160201b811115610a4657600080fd5b820183602082011115610a5857600080fd5b803590602001918460208302840111600160201b83111715610a7957600080fd5b9190808060200260200160405190810160405280939291908181526020018383602002808284376000920191909152509295949360208101935035915050600160201b811115610ac857600080fd5b820183602082011115610ada57600080fd5b803590602001918460208302840111600160201b83111715610afb57600080fd5b9190808060200260200160405190810160405280939291908181526020018383602002808284376000920191909152509295949360208101935035915050600160201b811115610b4a57600080fd5b820183602082011115610b5c57600080fd5b803590602001918460208302840111600160201b83111715610b7d57600080fd5b919080806020026020016040519081016040528093929190818152602001838360200280828437600092019190915250929550611bba945050505050565b600160209081526000928352604080842090915290825290205460ff1681565b600081815260016020908152604080832033845290915290205460ff16610c4c5760408051600160e51b62461bcd02815260206004820152601460248201527f55736572206973206e6f7420696e2067726f7570000000000000000000000000604482015290519081900360640190fd5b600081815260056020526040902054610caf5760408051600160e51b62461bcd02815260206004820152601360248201527f436c6f7365206e6f7420696e6974696174656400000000000000000000000000604482015290519081900360640190fd5b6000818152600560205260409020544211610d145760408051600160e51b62461bcd02815260206004820152601760248201527f4368616c6c656e676520706572696f6420616374697665000000000000000000604482015290519081900360640190fd5b610d1c612790565b50600081815260076020908152604080832033845282528083208151808301909252805482526001015460ff16158015928201929092529190610d89578151600084815260208181526040808320338452909152902054610d829163ffffffff611ecf16565b9050610db5565b8151600084815260208181526040808320338452909152902054610db29163ffffffff611ee516565b90505b6000838152600360209081526040808320548151600160e01b63a9059cbb0281523360048201526024810186905291516001600160a01b039091169363a9059cbb93604480850194919392918390030190829087803b158015610e1757600080fd5b505af1158015610e2b573d6000803e3d6000fd5b505050506040513d6020811015610e4157600080fd5b5051610e8c5760408051600160e51b62461bcd02815260206004820152600f60248201526001608a1b6e151c985b9cd9995c8811985a5b195902604482015290519081900360640190fd5b60008381526003602090815260409182902054825184815292516001600160a01b0390911692339287927f74ed8246578a544482ad8494d76805b264b0b7666c3700eb6e17eec4d0fed7f49281900390910190a45050600081815260208181526040808320338085529083528184208490559383526001825280832093835292905220805460ff19169055565b60076020908152600092835260408084209091529082529020805460019091015460ff1682565b6001600160a01b038216610f9e5760408051600160e51b62461bcd02815260206004820152600c60248201527f496e76616c696420757365720000000000000000000000000000000000000000604482015290519081900360640190fd5b60008381526001602090815260408083206001600160a01b038616845290915290205460ff166110185760408051600160e51b62461bcd02815260206004820152601160248201527f55736572206e6f7420696e2067726f7570000000000000000000000000000000604482015290519081900360640190fd5b6000838152600560205260409020541561107c5760408051600160e51b62461bcd02815260206004820152600f60248201527f47726f757020697320636c6f7365640000000000000000000000000000000000604482015290519081900360640190fd5b6000838152600360209081526040808320548151600160e01b6323b872dd0281523360048201523060248201526044810186905291516001600160a01b03909116936323b872dd93606480850194919392918390030190829087803b1580156110e457600080fd5b505af11580156110f8573d6000803e3d6000fd5b505050506040513d602081101561110e57600080fd5b50516111595760408051600160e51b62461bcd02815260206004820152600f60248201526001608a1b6e151c985b9cd9995c8811985a5b195902604482015290519081900360640190fd5b6000838152602081815260408083206001600160a01b038616845290915290205461118a908263ffffffff611ecf16565b6000848152602081815260408083206001600160a01b03808816808652828552838620879055898652600385528386205495819052918452825187815293840195909552815193909416939287927fb0b433ac55fa87d2325d965ba48a4c1bd255f4d962fcc30f2b0237306c86047f92908290030190a4505050565b6002602052816000526040600020818154811061121f57fe5b6000918252602090912001546001600160a01b03169150829050565b60008c8152600560205260409020541561129f5760408051600160e51b62461bcd02815260206004820152601460248201527f47726f757020616c726561647920636c6f736564000000000000000000000000604482015290519081900360640190fd5b60008c8152600460205260409020546112bf90429063ffffffff611ecf16565b600560008e8152602001908152602001600020819055506113eb8c8c8c80806020026020016040519081016040528093929190818152602001838360200280828437600081840152601f19601f820116905080830192505050505050508b8b8080602002602001604051908101604052809392919081815260200183836020028082843760009201919091525050604080516020808e0282810182019093528d82528f94509092508d918d9182919085019084908082843760009201919091525050604080516020808e0282810182019093528d82529093508d92508c91829185019084908082843760009201919091525050604080516020808d0282810182019093528c82529093508c92508b918291850190849080828437600092019190915250611bba92505050565b60008c81526005602090815260409182902054825190815291518e927fb1a73a0cf4b170db78d7ce693ffa2a96b34006943944d20eac8c523e86d0e29192908290030190a2505050505050505050505050565b60046020526000908152604090205481565b6003602052600090815260409020546001600160a01b031681565b600060208181529281526040808220909352908152205481565b60066020526000908152604090205481565b600183116114e05760408051600160e51b62461bcd02815260206004820152600b6024820152600160ac1b6a0456d7074792067726f75702604482015290519081900360640190fd5b60048311156115395760408051600160e51b62461bcd02815260206004820152600f60248201527f47726f757020746f6f206c617267650000000000000000000000000000000000604482015290519081900360640190fd5b6000858152600260205260409020541561158e5760408051600160e51b62461bcd02815260206004820152600b6024820152600160a81b6a4e616d6520696e2075736502604482015290519081900360640190fd5b6001600160a01b0382166115ec5760408051600160e51b62461bcd02815260206004820152600d60248201527f496e76616c696420746f6b656e00000000000000000000000000000000000000604482015290519081900360640190fd5b60008581526002602052604090206116059085856127a7565b50600085815260036020908152604080832080546001600160a01b0319166001600160a01b038716179055600490915281208290555b60ff811684111561173957600086815260016020526040812090868660ff851681811061166457fe5b602090810292909201356001600160a01b03168352508101919091526040016000205460ff16156116df5760408051600160e51b62461bcd02815260206004820152600f60248201527f4475706c69636174652075736572730000000000000000000000000000000000604482015290519081900360640190fd5b600086815260016020819052604082209091878760ff861681811061170057fe5b602090810292909201356001600160a01b0316835250810191909152604001600020805460ff191691151591909117905560010161163b565b50816001600160a01b0316857f5ac0deb59837edf1f086833bdb252ecb33606a49bebfb09ff32038fdbc11d23286868560405180806020018381526020018281038252858582818152602001925060200280828437600083820152604051601f909101601f1916909201829003965090945050505050a35050505050565b600082518451146118065760408051600160e51b62461bcd02815260206004820152600e6024820152600160901b6d426164207369676e61747572657302604482015290519081900360640190fd5b81518451146118535760408051600160e51b62461bcd02815260206004820152600e6024820152600160901b6d426164207369676e61747572657302604482015290519081900360640190fd5b6000888152600260205260409020548451146118b95760408051600160e51b62461bcd02815260206004820152601560248201527f496e636f72726563742073696773206c656e6774680000000000000000000000604482015290519081900360640190fd5b86518451146119125760408051600160e51b62461bcd02815260206004820152601860248201527f496e636f727265637420616d6f756e7473206c656e6774680000000000000000604482015290519081900360640190fd5b60005b60008981526002602052604090205460ff82161015611a1857600089815260026020526040902080546119bc918b9160ff851690811061195157fe5b9060005260206000200160009054906101000a90046001600160a01b03168a8a8a8a8760ff168151811061198157fe5b60200260200101518a8860ff168151811061199857fe5b60200260200101518a8960ff16815181106119af57fe5b6020026020010151611a39565b611a105760408051600160e51b62461bcd02815260206004820152601160248201527f496e76616c6964207369676e6174757265000000000000000000000000000000604482015290519081900360640190fd5b600101611915565b50600198975050505050505050565b60056020526000908152604090205481565b60008551875114611a945760408051600160e51b62461bcd02815260206004820152601a60248201527f496e636f727265637420697343726564697473206c656e677468000000000000604482015290519081900360640190fd5b6000875160021415611aaf57611aac8a898989611ef7565b90505b875160031415611ac857611ac58a8989896120c7565b90505b875160041415611ae157611ade8a89898961230d565b90505b6040805160008152602080820180845284905260ff8816828401526060820187905260808201869052915160019260a0808401939192601f1981019281900390910190855afa158015611b38573d6000803e3d6000fd5b505050602060405103516001600160a01b0316896001600160a01b031614611baa5760408051600160e51b62461bcd02815260206004820152601260248201527f5369676e6174757265206d69736d617463680000000000000000000000000000604482015290519081900360640190fd5b5060019998505050505050505050565b600087815260016020908152604080832033845290915290205460ff16611c2b5760408051600160e51b62461bcd02815260206004820152601460248201527f55736572206973206e6f7420696e2067726f7570000000000000000000000000604482015290519081900360640190fd5b6000878152600660205260409020548411611c4557600080fd5b600087815260056020526040902054611ca85760408051600160e51b62461bcd02815260206004820152601060248201527f47726f7570206e6f7420636c6f73656400000000000000000000000000000000604482015290519081900360640190fd5b8451865114611d015760408051600160e51b62461bcd02815260206004820152601560248201527f496e76616c6964207374617465206c656e677468730000000000000000000000604482015290519081900360640190fd5b600087815260026020526040902054865114611d675760408051600160e51b62461bcd02815260206004820152601460248201527f496e76616c69642075736572206c656e67746873000000000000000000000000604482015290519081900360640190fd5b600087815260056020526040902054421115611dcd5760408051600160e51b62461bcd02815260206004820152601b60248201527f4368616c6c656e676520706572696f64206e6f74206163746976650000000000604482015290519081900360640190fd5b611ddc878787878787876117b7565b611e305760408051600160e51b62461bcd02815260206004820152600c60248201527f496e76616c696420736967730000000000000000000000000000000000000000604482015290519081900360640190fd5b611e3c878787876125dc565b611e905760408051600160e51b62461bcd02815260206004820152600d60248201527f496e76616c696420737461746500000000000000000000000000000000000000604482015290519081900360640190fd5b60408051428152905188917fed7eceb3ac9e8f473771775da5d245244aed7f7d4f78524fddd21280cda3aa5c919081900360200190a250505050505050565b600082820183811015611ede57fe5b9392505050565b600082821115611ef157fe5b50900390565b60008030868487600081518110611f0a57fe5b602002602001015187600081518110611f1f57fe5b602002602001015189600181518110611f3457fe5b602002602001015189600181518110611f4957fe5b602090810291909101810151604080516001600160a01b0390991660601b8984015260348901979097526054880195909552607487019390935290151560f890811b6094870152609586019190915291151590911b60b58401528151609681850301815260b684018352805190820120600160831b6f0c2c8c8e4cae6e640e6e0d8d2e88aa890260d6850152600160a01b6b62797465733332206e616d650260e68501526001607c1b70075696e743235362074696d657374616d70260f2850152600160841b6f075696e7432353620616d6f756e745f3026101038501526001608c1b6e0626f6f6c2069734372656469745f302610113850152600160801b6f75696e7432353620616d6f756e745f3102610122850152600160881b6e626f6f6c2069734372656469745f310261013285015282516101218186030181526101418501845280519083012061016185015261018180850191909152825180850390910181526101a19093019091528151910120915050949350505050565b600080308684876000815181106120da57fe5b6020026020010151876000815181106120ef57fe5b60200260200101518960018151811061210457fe5b60200260200101518960018151811061211957fe5b60200260200101518b60028151811061212e57fe5b60200260200101518b60028151811061214357fe5b602090810291909101810151604080516001600160a01b03909b1660601b8b84015260348b019990995260548a0197909752607489019590955292151560f890811b609489015260958801929092521515811b60b587015260b686019190915291151590911b60d6840152815160b781850301815260d784018352805190820120600160831b6f0c2c8c8e4cae6e640e6e0d8d2e88aa890260f7850152600160a01b6b62797465733332206e616d65026101078501526001607c1b70075696e743235362074696d657374616d702610113850152600160841b6f075696e7432353620616d6f756e745f3026101248501526001608c1b6e0626f6f6c2069734372656469745f302610134850152600160801b6f75696e7432353620616d6f756e745f3102610143850152600160881b6e626f6f6c2069734372656469745f3102610153850152600160811b6f3ab4b73a191a9b1030b6b7bab73a2f9902610162850152600160891b6e3137b7b61034b9a1b932b234ba2f99026101728501528251610161818603018152610181850184528051908301206101a18501526101c180850191909152825180850390910181526101e19093019091528151910120915050949350505050565b6000803086848760008151811061232057fe5b60200260200101518760008151811061233557fe5b60200260200101518960018151811061234a57fe5b60200260200101518960018151811061235f57fe5b60200260200101518b60028151811061237457fe5b60200260200101518b60028151811061238957fe5b60200260200101518d60038151811061239e57fe5b60200260200101518d6003815181106123b357fe5b602090810291909101810151604080516001600160a01b03909d1660601b8d84015260348d019b909b5260548c019990995260748b019790975294151560f890811b60948b015260958a0194909452911515831b60b589015260b68801521515811b60d687015260d7860191909152911515821b60f7850152825160d88186030181529184018352815191810191909120600160831b6f0c2c8c8e4cae6e640e6e0d8d2e88aa8902610118850152600160a01b6b62797465733332206e616d65026101288501526001607c1b70075696e743235362074696d657374616d702610134850152600160841b6f075696e7432353620616d6f756e745f3026101458501526001608c1b6e0626f6f6c2069734372656469745f302610155850152600160801b6f75696e7432353620616d6f756e745f3102610164850152600160881b6e626f6f6c2069734372656469745f3102610174850152600160811b6f3ab4b73a191a9b1030b6b7bab73a2f9902610183850152600160891b6e3137b7b61034b9a1b932b234ba2f99026101938501527f75696e7432353620616d6f756e745f33000000000000000000000000000000006101a28501527f626f6f6c2069734372656469745f3300000000000000000000000000000000006101b285015282516101a18186030181526101c1850184528051908301206101e185015261020180850191909152825180850390910181526102219093019091528151910120915050949350505050565b60008080805b86518160ff16101561271a57858160ff16815181106125fd57fe5b60200260200101511561263a57612633878260ff168151811061261c57fe5b602002602001015184611ecf90919063ffffffff16565b9250612666565b612663878260ff168151811061264c57fe5b602002602001015183611ecf90919063ffffffff16565b91505b6040518060400160405280888360ff168151811061268057fe5b60200260200101518152602001878360ff168151811061269c57fe5b602090810291909101810151151590915260008a815260078252604080822060029093528120805460ff86169081106126d157fe5b6000918252602080832091909101546001600160a01b031683528281019390935260409091019020825181559101516001918201805460ff1916911515919091179055016125e2565b508082146127725760408051600160e51b62461bcd02815260206004820152600e60248201527f4e6f6e2d7a65726f207374617465000000000000000000000000000000000000604482015290519081900360640190fd5b50505060008481526006602052604090208190556001949350505050565b604080518082019091526000808252602082015290565b8280548282559060005260206000209081019282156127fa579160200282015b828111156127fa5781546001600160a01b0319166001600160a01b038435161782556020909201916001909101906127c7565b5061280692915061280a565b5090565b61282e91905b808211156128065780546001600160a01b0319168155600101612810565b9056fea165627a7a7230582078c17e1d5a3b713ca12f2443318a38fd2276cb3f23b41494dcd3bcf5645b75060029",
  "source": "pragma solidity >=0.4.21 <0.6.0;\r\n\r\nimport \"./SafeMath.sol\";\r\nimport \"./ERC20.sol\";\r\nimport \"./ECRecovery.sol\";\r\n\r\ncontract SplitETH {\r\n    using SafeMath for uint256;\r\n\r\n    struct State {\r\n        uint256 amount;\r\n        bool isCredit;\r\n    }\r\n\r\n    mapping (bytes32 => mapping (address => uint256)) public groupBalances;\r\n    mapping (bytes32 => mapping (address => bool)) public inGroup;\r\n    mapping (bytes32 => address[]) public groupUsers;\r\n    mapping (bytes32 => address) public groupToken;\r\n    mapping (bytes32 => uint256) public groupTimeout;\r\n    mapping (bytes32 => uint256) public groupCloseTime;\r\n    mapping (bytes32 => uint256) public groupNonce;\r\n    mapping (bytes32 => mapping (address => State)) public groupState;\r\n\r\n    event GroupCreated(bytes32 indexed _name, address[] _users, address indexed _token, uint256 _timeout);\r\n    event UserBalanceUpdated(bytes32 indexed _name, address indexed _user, address indexed _token, uint256 _deposit, uint256 _balance);\r\n    event GroupClosed(bytes32 indexed _name, uint256 _challengeEndTime);\r\n    event GroupUpdated(bytes32 indexed _name, uint256 _time);\r\n    event UserBalanceWithdrawn(bytes32 indexed _name, address indexed _user, address indexed _token, uint256 _refund);\r\n\r\n    function createGroup(bytes32 _name, address[] calldata _users, address _token, uint256 _timeout) external {\r\n        require(_users.length > 1, \"Empty group\");\r\n        require(_users.length <= 4, \"Group too large\");\r\n        require(groupUsers[_name].length == 0, \"Name in use\");\r\n        require(_token != address(0), \"Invalid token\");\r\n        groupUsers[_name] = _users;\r\n        groupToken[_name] = _token;\r\n        groupTimeout[_name] = _timeout;\r\n        for (uint8 i = 0; i < _users.length; i++) {\r\n            require(!inGroup[_name][_users[i]], \"Duplicate users\");\r\n            inGroup[_name][_users[i]] = true;\r\n        }\r\n        emit GroupCreated(_name, _users, _token, _timeout);\r\n    }\r\n\r\n    function fundUser(bytes32 _name, address _user, uint256 _amount) external {\r\n        require(_user != address(0), \"Invalid user\");\r\n        require(inGroup[_name][_user], \"User not in group\");\r\n        require(groupCloseTime[_name] == 0, \"Group is closed\");\r\n        require(ERC20(groupToken[_name]).transferFrom(msg.sender, address(this), _amount), \"Transfer Failed\");\r\n        groupBalances[_name][_user] = groupBalances[_name][_user].add(_amount);\r\n        emit UserBalanceUpdated(_name, _user, groupToken[_name], _amount, groupBalances[_name][_user]);\r\n    }\r\n\r\n    function closeGroup(bytes32 _name, uint256[] calldata _amounts, bool[] calldata _isCredits, uint256 _timestamp, uint8[] calldata _vs, bytes32[] calldata _rs, bytes32[] calldata _ss) external {\r\n        require(groupCloseTime[_name] == 0, \"Group already closed\");\r\n        groupCloseTime[_name] = now.add(groupTimeout[_name]);\r\n        updateGroup(_name, _amounts, _isCredits, _timestamp, _vs, _rs, _ss);\r\n        emit GroupClosed(_name, groupCloseTime[_name]);\r\n    }\r\n\r\n    function updateGroup(bytes32 _name, uint256[] memory _amounts, bool[] memory _isCredits, uint256 _timestamp, uint8[] memory _vs, bytes32[] memory _rs, bytes32[] memory _ss) public {\r\n        require(inGroup[_name][msg.sender], \"User is not in group\");\r\n        require(groupNonce[_name] < _timestamp);\r\n        require(groupCloseTime[_name] != 0, \"Group not closed\");\r\n        require(_amounts.length == _isCredits.length, \"Invalid state lengths\");\r\n        require(_amounts.length == groupUsers[_name].length, \"Invalid user lengths\");\r\n        require(now <= groupCloseTime[_name], \"Challenge period not active\");\r\n        require(checkSigs(_name, _amounts, _isCredits, _timestamp, _vs, _rs, _ss), \"Invalid sigs\");\r\n        require(_updateState(_name, _amounts, _isCredits, _timestamp), \"Invalid state\");\r\n        emit GroupUpdated(_name, now);\r\n    }\r\n\r\n    function pullFunds(bytes32 _name) external {\r\n        require(inGroup[_name][msg.sender], \"User is not in group\");\r\n        require(groupCloseTime[_name] != 0, \"Close not initiated\");\r\n        require(now > groupCloseTime[_name], \"Challenge period active\");\r\n        State memory userState = groupState[_name][msg.sender];\r\n        uint256 withdrawn;\r\n        if (userState.isCredit) {\r\n            withdrawn = groupBalances[_name][msg.sender].add(userState.amount);\r\n        } else {\r\n            withdrawn = groupBalances[_name][msg.sender].sub(userState.amount);\r\n        }\r\n        require(ERC20(groupToken[_name]).transfer(msg.sender, withdrawn), \"Transfer Failed\");\r\n        emit UserBalanceWithdrawn(_name, msg.sender, groupToken[_name], withdrawn);\r\n        groupBalances[_name][msg.sender] = 0;\r\n        inGroup[_name][msg.sender] = false;\r\n    }\r\n\r\n    function _updateState(bytes32 _name, uint256[] memory _amounts, bool[] memory _isCredits, uint256 _timestamp) internal returns(bool) {\r\n        uint256 credits;\r\n        uint256 debits;\r\n        for (uint8 i = 0; i < _amounts.length; i++) {\r\n            if (_isCredits[i]) {\r\n                credits = credits.add(_amounts[i]);\r\n            } else {\r\n                debits = debits.add(_amounts[i]);\r\n            }\r\n            groupState[_name][groupUsers[_name][i]] = State(_amounts[i], _isCredits[i]);\r\n        }\r\n        require(credits == debits, \"Non-zero state\");\r\n        groupNonce[_name] = _timestamp;\r\n        return true;\r\n    }\r\n\r\n    function checkSigs(bytes32 _name, uint256[] memory _amounts, bool[] memory _isCredits, uint256 _timestamp, uint8[] memory _vs, bytes32[] memory _rs, bytes32[] memory _ss) public view returns(bool) {\r\n        require(_vs.length == _rs.length, \"Bad signatures\");\r\n        require(_vs.length == _ss.length, \"Bad signatures\");\r\n        require(_vs.length == groupUsers[_name].length, \"Incorrect sigs length\");\r\n        require(_vs.length == _amounts.length, \"Incorrect amounts length\");\r\n        for (uint8 i = 0; i < groupUsers[_name].length; i++) {\r\n            require(checkSig(_name, groupUsers[_name][i], _amounts, _isCredits, _timestamp, _vs[i], _rs[i], _ss[i]), \"Invalid signature\");\r\n        }\r\n        return true;\r\n    }\r\n\r\n    function checkSig(bytes32 _name, address _user, uint256[] memory _amounts, bool[] memory _isCredits, uint256 _timestamp, uint8 _v, bytes32 _r, bytes32 _s) public view returns(bool) {\r\n        require(_amounts.length == _isCredits.length, \"Incorrect isCredits length\");\r\n        bytes32 typedData;\r\n        if (_amounts.length == 2) {\r\n            typedData = _getHash2(_name, _amounts, _isCredits, _timestamp);\r\n        }\r\n        if (_amounts.length == 3) {\r\n            typedData = _getHash3(_name, _amounts, _isCredits, _timestamp);\r\n        }\r\n        if (_amounts.length == 4) {\r\n            typedData = _getHash4(_name, _amounts, _isCredits, _timestamp);\r\n        }\r\n        require(_user == ecrecover(typedData, _v, _r, _s), \"Signature mismatch\");\r\n        return true;\r\n    }\r\n\r\n    function _getHash2(bytes32 _name, uint256[] memory _amounts, bool[] memory _isCredits, uint256 _timestamp) internal view returns(bytes32) {\r\n        bytes32 stateData = keccak256(abi.encodePacked(address(this), _name, _timestamp, _amounts[0], _isCredits[0], _amounts[1], _isCredits[1]));\r\n        bytes32 abiHash = keccak256(abi.encodePacked(\"address splitETH\", \"bytes32 name\", \"uint256 timestamp\", \"uint256 amount_0\", \"bool isCredit_0\", \"uint256 amount_1\", \"bool isCredit_1\"));\r\n        bytes32 typedData = keccak256(abi.encodePacked(abiHash, stateData));\r\n        return typedData;\r\n    }\r\n\r\n    function _getHash3(bytes32 _name, uint256[] memory _amounts, bool[] memory _isCredits, uint256 _timestamp) internal view returns(bytes32) {\r\n        bytes32 stateData = keccak256(abi.encodePacked(address(this), _name, _timestamp, _amounts[0], _isCredits[0], _amounts[1], _isCredits[1], _amounts[2], _isCredits[2]));\r\n        bytes32 abiHash = keccak256(abi.encodePacked(\"address splitETH\", \"bytes32 name\", \"uint256 timestamp\", \"uint256 amount_0\", \"bool isCredit_0\", \"uint256 amount_1\", \"bool isCredit_1\", \"uint256 amount_2\", \"bool isCredit_2\"));\r\n        bytes32 typedData = keccak256(abi.encodePacked(abiHash, stateData));\r\n        return typedData;\r\n    }\r\n\r\n    function _getHash4(bytes32 _name, uint256[] memory _amounts, bool[] memory _isCredits, uint256 _timestamp) internal view returns(bytes32) {\r\n        bytes32 stateData = keccak256(abi.encodePacked(address(this), _name, _timestamp, _amounts[0], _isCredits[0], _amounts[1], _isCredits[1], _amounts[2], _isCredits[2], _amounts[3], _isCredits[3]));\r\n        bytes32 abiHash = keccak256(abi.encodePacked(\"address splitETH\", \"bytes32 name\", \"uint256 timestamp\", \"uint256 amount_0\", \"bool isCredit_0\", \"uint256 amount_1\", \"bool isCredit_1\", \"uint256 amount_2\", \"bool isCredit_2\", \"uint256 amount_3\", \"bool isCredit_3\"));\r\n        bytes32 typedData = keccak256(abi.encodePacked(abiHash, stateData));\r\n        return typedData;\r\n    }\r\n\r\n}\r\n",
  "sourcePath": "M:/projects/splitdai/splitDai/web-interface/contracts/SplitETH.sol",
  "compiler": {
    "name": "solc",
    "version": "0.5.8+commit.23d335f2.Emscripten.clang"
  },
  "schemaVersion": "3.0.16",
  "updatedAt": "2019-11-21T11:47:55.381Z",
  "devdoc": {
    "methods": {}
  },
  "userdoc": {
    "methods": {}
  }
}